{
  "_format": "hh-sol-artifact-1",
  "contractName": "GameItem",
  "sourceName": "contracts/GameItem.sol",
  "abi": [
    {
      "inputs": [],
      "stateMutability": "nonpayable",
      "type": "constructor"
    },
    {
      "anonymous": false,
      "inputs": [
        {
          "indexed": true,
          "internalType": "address",
          "name": "owner",
          "type": "address"
        },
        {
          "indexed": true,
          "internalType": "address",
          "name": "approved",
          "type": "address"
        },
        {
          "indexed": true,
          "internalType": "uint256",
          "name": "tokenId",
          "type": "uint256"
        }
      ],
      "name": "Approval",
      "type": "event"
    },
    {
      "anonymous": false,
      "inputs": [
        {
          "indexed": true,
          "internalType": "address",
          "name": "owner",
          "type": "address"
        },
        {
          "indexed": true,
          "internalType": "address",
          "name": "operator",
          "type": "address"
        },
        {
          "indexed": false,
          "internalType": "bool",
          "name": "approved",
          "type": "bool"
        }
      ],
      "name": "ApprovalForAll",
      "type": "event"
    },
    {
      "anonymous": false,
      "inputs": [
        {
          "indexed": false,
          "internalType": "uint256",
          "name": "tokenId",
          "type": "uint256"
        },
        {
          "indexed": false,
          "internalType": "uint256",
          "name": "stage",
          "type": "uint256"
        },
        {
          "indexed": false,
          "internalType": "uint256",
          "name": "number",
          "type": "uint256"
        },
        {
          "indexed": false,
          "internalType": "string",
          "name": "message",
          "type": "string"
        }
      ],
      "name": "CreateNFTItem",
      "type": "event"
    },
    {
      "anonymous": false,
      "inputs": [
        {
          "indexed": false,
          "internalType": "string",
          "name": "",
          "type": "string"
        }
      ],
      "name": "DebugLogEvent",
      "type": "event"
    },
    {
      "anonymous": false,
      "inputs": [
        {
          "indexed": true,
          "internalType": "address",
          "name": "previousOwner",
          "type": "address"
        },
        {
          "indexed": true,
          "internalType": "address",
          "name": "newOwner",
          "type": "address"
        }
      ],
      "name": "OwnershipTransferred",
      "type": "event"
    },
    {
      "anonymous": false,
      "inputs": [
        {
          "indexed": true,
          "internalType": "address",
          "name": "from",
          "type": "address"
        },
        {
          "indexed": true,
          "internalType": "address",
          "name": "to",
          "type": "address"
        },
        {
          "indexed": true,
          "internalType": "uint256",
          "name": "tokenId",
          "type": "uint256"
        }
      ],
      "name": "Transfer",
      "type": "event"
    },
    {
      "inputs": [
        {
          "internalType": "address",
          "name": "to",
          "type": "address"
        },
        {
          "internalType": "uint256",
          "name": "tokenId",
          "type": "uint256"
        }
      ],
      "name": "approve",
      "outputs": [],
      "stateMutability": "nonpayable",
      "type": "function"
    },
    {
      "inputs": [
        {
          "internalType": "address",
          "name": "owner",
          "type": "address"
        }
      ],
      "name": "balanceOf",
      "outputs": [
        {
          "internalType": "uint256",
          "name": "",
          "type": "uint256"
        }
      ],
      "stateMutability": "view",
      "type": "function"
    },
    {
      "inputs": [],
      "name": "canPlayGame",
      "outputs": [
        {
          "internalType": "bool",
          "name": "",
          "type": "bool"
        }
      ],
      "stateMutability": "view",
      "type": "function"
    },
    {
      "inputs": [
        {
          "internalType": "uint256",
          "name": "_stage",
          "type": "uint256"
        },
        {
          "internalType": "string",
          "name": "_message",
          "type": "string"
        },
        {
          "internalType": "string",
          "name": "_svg",
          "type": "string"
        }
      ],
      "name": "createGameItem",
      "outputs": [],
      "stateMutability": "payable",
      "type": "function"
    },
    {
      "inputs": [],
      "name": "fetchCurrenStatus",
      "outputs": [
        {
          "internalType": "uint256[]",
          "name": "",
          "type": "uint256[]"
        }
      ],
      "stateMutability": "view",
      "type": "function"
    },
    {
      "inputs": [],
      "name": "fetchMyNFTs",
      "outputs": [
        {
          "components": [
            {
              "internalType": "uint256",
              "name": "tokenId",
              "type": "uint256"
            },
            {
              "internalType": "address",
              "name": "owner",
              "type": "address"
            },
            {
              "internalType": "uint256",
              "name": "stage",
              "type": "uint256"
            },
            {
              "internalType": "uint256",
              "name": "number",
              "type": "uint256"
            },
            {
              "internalType": "string",
              "name": "message",
              "type": "string"
            }
          ],
          "internalType": "struct GameItem.NFTItem[]",
          "name": "",
          "type": "tuple[]"
        }
      ],
      "stateMutability": "view",
      "type": "function"
    },
    {
      "inputs": [
        {
          "internalType": "uint256",
          "name": "tokenId",
          "type": "uint256"
        }
      ],
      "name": "getApproved",
      "outputs": [
        {
          "internalType": "address",
          "name": "",
          "type": "address"
        }
      ],
      "stateMutability": "view",
      "type": "function"
    },
    {
      "inputs": [
        {
          "internalType": "address",
          "name": "owner",
          "type": "address"
        },
        {
          "internalType": "address",
          "name": "operator",
          "type": "address"
        }
      ],
      "name": "isApprovedForAll",
      "outputs": [
        {
          "internalType": "bool",
          "name": "",
          "type": "bool"
        }
      ],
      "stateMutability": "view",
      "type": "function"
    },
    {
      "inputs": [
        {
          "internalType": "uint256",
          "name": "_stage",
          "type": "uint256"
        },
        {
          "internalType": "uint256",
          "name": "_number",
          "type": "uint256"
        }
      ],
      "name": "judgeGame",
      "outputs": [
        {
          "internalType": "uint256",
          "name": "",
          "type": "uint256"
        }
      ],
      "stateMutability": "view",
      "type": "function"
    },
    {
      "inputs": [
        {
          "internalType": "address",
          "name": "",
          "type": "address"
        }
      ],
      "name": "lastPlayedAt",
      "outputs": [
        {
          "internalType": "uint256",
          "name": "",
          "type": "uint256"
        }
      ],
      "stateMutability": "view",
      "type": "function"
    },
    {
      "inputs": [],
      "name": "name",
      "outputs": [
        {
          "internalType": "string",
          "name": "",
          "type": "string"
        }
      ],
      "stateMutability": "view",
      "type": "function"
    },
    {
      "inputs": [],
      "name": "owner",
      "outputs": [
        {
          "internalType": "address",
          "name": "",
          "type": "address"
        }
      ],
      "stateMutability": "view",
      "type": "function"
    },
    {
      "inputs": [
        {
          "internalType": "uint256",
          "name": "tokenId",
          "type": "uint256"
        }
      ],
      "name": "ownerOf",
      "outputs": [
        {
          "internalType": "address",
          "name": "",
          "type": "address"
        }
      ],
      "stateMutability": "view",
      "type": "function"
    },
    {
      "inputs": [],
      "name": "renounceOwnership",
      "outputs": [],
      "stateMutability": "nonpayable",
      "type": "function"
    },
    {
      "inputs": [
        {
          "internalType": "address",
          "name": "from",
          "type": "address"
        },
        {
          "internalType": "address",
          "name": "to",
          "type": "address"
        },
        {
          "internalType": "uint256",
          "name": "tokenId",
          "type": "uint256"
        }
      ],
      "name": "safeTransferFrom",
      "outputs": [],
      "stateMutability": "nonpayable",
      "type": "function"
    },
    {
      "inputs": [
        {
          "internalType": "address",
          "name": "from",
          "type": "address"
        },
        {
          "internalType": "address",
          "name": "to",
          "type": "address"
        },
        {
          "internalType": "uint256",
          "name": "tokenId",
          "type": "uint256"
        },
        {
          "internalType": "bytes",
          "name": "_data",
          "type": "bytes"
        }
      ],
      "name": "safeTransferFrom",
      "outputs": [],
      "stateMutability": "nonpayable",
      "type": "function"
    },
    {
      "inputs": [
        {
          "internalType": "address",
          "name": "operator",
          "type": "address"
        },
        {
          "internalType": "bool",
          "name": "approved",
          "type": "bool"
        }
      ],
      "name": "setApprovalForAll",
      "outputs": [],
      "stateMutability": "nonpayable",
      "type": "function"
    },
    {
      "inputs": [
        {
          "internalType": "uint256",
          "name": "",
          "type": "uint256"
        }
      ],
      "name": "stageToCount",
      "outputs": [
        {
          "internalType": "uint256",
          "name": "",
          "type": "uint256"
        }
      ],
      "stateMutability": "view",
      "type": "function"
    },
    {
      "inputs": [],
      "name": "startGame",
      "outputs": [],
      "stateMutability": "payable",
      "type": "function"
    },
    {
      "inputs": [
        {
          "internalType": "bytes4",
          "name": "interfaceId",
          "type": "bytes4"
        }
      ],
      "name": "supportsInterface",
      "outputs": [
        {
          "internalType": "bool",
          "name": "",
          "type": "bool"
        }
      ],
      "stateMutability": "view",
      "type": "function"
    },
    {
      "inputs": [],
      "name": "symbol",
      "outputs": [
        {
          "internalType": "string",
          "name": "",
          "type": "string"
        }
      ],
      "stateMutability": "view",
      "type": "function"
    },
    {
      "inputs": [
        {
          "internalType": "uint256",
          "name": "tokenId",
          "type": "uint256"
        }
      ],
      "name": "tokenURI",
      "outputs": [
        {
          "internalType": "string",
          "name": "",
          "type": "string"
        }
      ],
      "stateMutability": "view",
      "type": "function"
    },
    {
      "inputs": [
        {
          "internalType": "address",
          "name": "from",
          "type": "address"
        },
        {
          "internalType": "address",
          "name": "to",
          "type": "address"
        },
        {
          "internalType": "uint256",
          "name": "tokenId",
          "type": "uint256"
        }
      ],
      "name": "transferFrom",
      "outputs": [],
      "stateMutability": "nonpayable",
      "type": "function"
    },
    {
      "inputs": [
        {
          "internalType": "address",
          "name": "newOwner",
          "type": "address"
        }
      ],
      "name": "transferOwnership",
      "outputs": [],
      "stateMutability": "nonpayable",
      "type": "function"
    }
  ],
  "bytecode": "0x60806040523480156200001157600080fd5b506040518060400160405280600c81526020017f4d79204669737274204e465400000000000000000000000000000000000000008152506040518060400160405280600581526020017f4d46544b4e000000000000000000000000000000000000000000000000000000815250816000908051906020019062000096929190620001a6565b508060019080519060200190620000af929190620001a6565b505050620000d2620000c6620000d860201b60201c565b620000e060201b60201c565b620002bb565b600033905090565b6000600760009054906101000a900473ffffffffffffffffffffffffffffffffffffffff16905081600760006101000a81548173ffffffffffffffffffffffffffffffffffffffff021916908373ffffffffffffffffffffffffffffffffffffffff1602179055508173ffffffffffffffffffffffffffffffffffffffff168173ffffffffffffffffffffffffffffffffffffffff167f8be0079c531659141344cd1fd0a4f28419497f9722a3daafe3b4186f6b6457e060405160405180910390a35050565b828054620001b49062000256565b90600052602060002090601f016020900481019282620001d8576000855562000224565b82601f10620001f357805160ff191683800117855562000224565b8280016001018555821562000224579182015b828111156200022357825182559160200191906001019062000206565b5b50905062000233919062000237565b5090565b5b808211156200025257600081600090555060010162000238565b5090565b600060028204905060018216806200026f57607f821691505b602082108114156200028657620002856200028c565b5b50919050565b7f4e487b7100000000000000000000000000000000000000000000000000000000600052602260045260246000fd5b61457f80620002cb6000396000f3fe60806040526004361061014b5760003560e01c806395d89b41116100b6578063c87b56dd1161006f578063c87b56dd14610495578063cd2a0060146104d2578063d65ab5f2146104fd578063e985e9c514610507578063f2fde38b14610544578063fde91ba81461056d5761014b565b806395d89b4114610394578063a22cb465146103bf578063a5be619a146103e8578063ab3cf0a714610413578063acab0db414610450578063b88d4fde1461046c5761014b565b80632d7848c1116101085780632d7848c11461027257806342842e0e146102af5780636352211e146102d857806370a0823114610315578063715018a6146103525780638da5cb5b146103695761014b565b806301ffc9a71461015057806306fdde031461018d578063081812fc146101b8578063095ea7b3146101f5578063202e37401461021e57806323b872dd14610249575b600080fd5b34801561015c57600080fd5b5061017760048036038101906101729190612e34565b6105aa565b60405161018491906136e6565b60405180910390f35b34801561019957600080fd5b506101a261068c565b6040516101af9190613701565b60405180910390f35b3480156101c457600080fd5b506101df60048036038101906101da9190612e86565b61071e565b6040516101ec919061363b565b60405180910390f35b34801561020157600080fd5b5061021c60048036038101906102179190612df8565b6107a3565b005b34801561022a57600080fd5b506102336108bb565b60405161024091906136a2565b60405180910390f35b34801561025557600080fd5b50610270600480360381019061026b9190612cf2565b610bf5565b005b34801561027e57600080fd5b5061029960048036038101906102949190612f2e565b610c55565b6040516102a69190613963565b60405180910390f35b3480156102bb57600080fd5b506102d660048036038101906102d19190612cf2565b610c86565b005b3480156102e457600080fd5b506102ff60048036038101906102fa9190612e86565b610ca6565b60405161030c919061363b565b60405180910390f35b34801561032157600080fd5b5061033c60048036038101906103379190612c8d565b610d58565b6040516103499190613963565b60405180910390f35b34801561035e57600080fd5b50610367610e10565b005b34801561037557600080fd5b5061037e610e98565b60405161038b919061363b565b60405180910390f35b3480156103a057600080fd5b506103a9610ec2565b6040516103b69190613701565b60405180910390f35b3480156103cb57600080fd5b506103e660048036038101906103e19190612dbc565b610f54565b005b3480156103f457600080fd5b506103fd610f6a565b60405161040a91906136e6565b60405180910390f35b34801561041f57600080fd5b5061043a60048036038101906104359190612e86565b610fc0565b6040516104479190613963565b60405180910390f35b61046a60048036038101906104659190612eaf565b610fd8565b005b34801561047857600080fd5b50610493600480360381019061048e9190612d41565b6111d9565b005b3480156104a157600080fd5b506104bc60048036038101906104b79190612e86565b61123b565b6040516104c99190613701565b60405180910390f35b3480156104de57600080fd5b506104e761138d565b6040516104f491906136c4565b60405180910390f35b610505611493565b005b34801561051357600080fd5b5061052e60048036038101906105299190612cb6565b6114ea565b60405161053b91906136e6565b60405180910390f35b34801561055057600080fd5b5061056b60048036038101906105669190612c8d565b61157e565b005b34801561057957600080fd5b50610594600480360381019061058f9190612c8d565b611676565b6040516105a19190613963565b60405180910390f35b60007f80ac58cd000000000000000000000000000000000000000000000000000000007bffffffffffffffffffffffffffffffffffffffffffffffffffffffff1916827bffffffffffffffffffffffffffffffffffffffffffffffffffffffff1916148061067557507f5b5e139f000000000000000000000000000000000000000000000000000000007bffffffffffffffffffffffffffffffffffffffffffffffffffffffff1916827bffffffffffffffffffffffffffffffffffffffffffffffffffffffff1916145b8061068557506106848261168e565b5b9050919050565b60606000805461069b90613ce2565b80601f01602080910402602001604051908101604052809291908181526020018280546106c790613ce2565b80156107145780601f106106e957610100808354040283529160200191610714565b820191906000526020600020905b8154815290600101906020018083116106f757829003601f168201915b5050505050905090565b6000610729826116f8565b610768576040517f08c379a000000000000000000000000000000000000000000000000000000000815260040161075f906138c3565b60405180910390fd5b6004600083815260200190815260200160002060009054906101000a900473ffffffffffffffffffffffffffffffffffffffff169050919050565b60006107ae82610ca6565b90508073ffffffffffffffffffffffffffffffffffffffff168373ffffffffffffffffffffffffffffffffffffffff16141561081f576040517f08c379a000000000000000000000000000000000000000000000000000000000815260040161081690613923565b60405180910390fd5b8073ffffffffffffffffffffffffffffffffffffffff1661083e611764565b73ffffffffffffffffffffffffffffffffffffffff16148061086d575061086c81610867611764565b6114ea565b5b6108ac576040517f08c379a00000000000000000000000000000000000000000000000000000000081526004016108a390613803565b60405180910390fd5b6108b6838361176c565b505050565b606060006108c96008611825565b905060008060005b83811015610966573373ffffffffffffffffffffffffffffffffffffffff16600a600083815260200190815260200160002060010160009054906101000a900473ffffffffffffffffffffffffffffffffffffffff1673ffffffffffffffffffffffffffffffffffffffff161415610953576001836109509190613b17565b92505b808061095e90613d45565b9150506108d1565b5060008267ffffffffffffffff8111156109a9577f4e487b7100000000000000000000000000000000000000000000000000000000600052604160045260246000fd5b6040519080825280602002602001820160405280156109e257816020015b6109cf612a6c565b8152602001906001900390816109c75790505b50905060005b84811015610bea573373ffffffffffffffffffffffffffffffffffffffff16600a600083815260200190815260200160002060010160009054906101000a900473ffffffffffffffffffffffffffffffffffffffff1673ffffffffffffffffffffffffffffffffffffffff161415610bd7576000600a60008381526020019081526020016000209050806040518060a0016040529081600082015481526020016001820160009054906101000a900473ffffffffffffffffffffffffffffffffffffffff1673ffffffffffffffffffffffffffffffffffffffff1673ffffffffffffffffffffffffffffffffffffffff1681526020016002820154815260200160038201548152602001600482018054610b0190613ce2565b80601f0160208091040260200160405190810160405280929190818152602001828054610b2d90613ce2565b8015610b7a5780601f10610b4f57610100808354040283529160200191610b7a565b820191906000526020600020905b815481529060010190602001808311610b5d57829003601f168201915b505050505081525050838581518110610bbc577f4e487b7100000000000000000000000000000000000000000000000000000000600052603260045260246000fd5b60200260200101819052508380610bd290613d45565b945050505b8080610be290613d45565b9150506109e8565b508094505050505090565b610c06610c00611764565b82611833565b610c45576040517f08c379a0000000000000000000000000000000000000000000000000000000008152600401610c3c90613943565b60405180910390fd5b610c50838383611911565b505050565b6000610c6082611b78565b15610c7b576000610c7084611e4f565b905080915050610c80565b600390505b92915050565b610ca1838383604051806020016040528060008152506111d9565b505050565b6000806002600084815260200190815260200160002060009054906101000a900473ffffffffffffffffffffffffffffffffffffffff169050600073ffffffffffffffffffffffffffffffffffffffff168173ffffffffffffffffffffffffffffffffffffffff161415610d4f576040517f08c379a0000000000000000000000000000000000000000000000000000000008152600401610d4690613843565b60405180910390fd5b80915050919050565b60008073ffffffffffffffffffffffffffffffffffffffff168273ffffffffffffffffffffffffffffffffffffffff161415610dc9576040517f08c379a0000000000000000000000000000000000000000000000000000000008152600401610dc090613823565b60405180910390fd5b600360008373ffffffffffffffffffffffffffffffffffffffff1673ffffffffffffffffffffffffffffffffffffffff168152602001908152602001600020549050919050565b610e18611764565b73ffffffffffffffffffffffffffffffffffffffff16610e36610e98565b73ffffffffffffffffffffffffffffffffffffffff1614610e8c576040517f08c379a0000000000000000000000000000000000000000000000000000000008152600401610e83906138e3565b60405180910390fd5b610e966000611e89565b565b6000600760009054906101000a900473ffffffffffffffffffffffffffffffffffffffff16905090565b606060018054610ed190613ce2565b80601f0160208091040260200160405190810160405280929190818152602001828054610efd90613ce2565b8015610f4a5780601f10610f1f57610100808354040283529160200191610f4a565b820191906000526020600020905b815481529060010190602001808311610f2d57829003601f168201915b5050505050905090565b610f66610f5f611764565b8383611f4f565b5050565b60004261a8c0600960003373ffffffffffffffffffffffffffffffffffffffff1673ffffffffffffffffffffffffffffffffffffffff16815260200190815260200160002054610fba9190613b17565b10905090565b600b6020528060005260406000206000915090505481565b610fe1836120bc565b15610feb57600080fd5b6000610ff76008611825565b9050600061102d846110088561214b565b60405160200161101992919061355a565b60405160208183030381529060405261214b565b9050600081604051602001611042919061359f565b604051602081830303815290604052905061105d33846122d5565b61106783826122f3565b60006001600b6000898152602001908152602001600020546110899190613b17565b90506040518060a001604052808581526020013373ffffffffffffffffffffffffffffffffffffffff16815260200188815260200182815260200187815250600a60008681526020019081526020016000206000820151816000015560208201518160010160006101000a81548173ffffffffffffffffffffffffffffffffffffffff021916908373ffffffffffffffffffffffffffffffffffffffff1602179055506040820151816002015560608201518160030155608082015181600401908051906020019061115c929190612ab1565b50905050600b6000888152602001908152602001600020600081548092919061118490613d45565b91905055507fec0f7e17f0b59473664cbe4ba92b70cdee08e58b30aee7bba24842e5c2a44a4e848883896040516111be949392919061397e565b60405180910390a16111d06008612367565b50505050505050565b6111ea6111e4611764565b83611833565b611229576040517f08c379a000000000000000000000000000000000000000000000000000000000815260040161122090613943565b60405180910390fd5b6112358484848461237d565b50505050565b6060611246826116f8565b611285576040517f08c379a000000000000000000000000000000000000000000000000000000000815260040161127c906138a3565b60405180910390fd5b60006006600084815260200190815260200160002080546112a590613ce2565b80601f01602080910402602001604051908101604052809291908181526020018280546112d190613ce2565b801561131e5780601f106112f35761010080835404028352916020019161131e565b820191906000526020600020905b81548152906001019060200180831161130157829003601f168201915b50505050509050600061132f6123d9565b9050600081511415611345578192505050611388565b60008251111561137a578082604051602001611362929190613536565b60405160208183030381529060405292505050611388565b611383846123f0565b925050505b919050565b60606000600567ffffffffffffffff8111156113d2577f4e487b7100000000000000000000000000000000000000000000000000000000600052604160045260246000fd5b6040519080825280602002602001820160405280156114005781602001602082028036833780820191505090505b5090506000600190505b600681101561148b57600b600082815260200190815260200160002054826001836114359190613bf8565b8151811061146c577f4e487b7100000000000000000000000000000000000000000000000000000000600052603260045260246000fd5b602002602001018181525050808061148390613d45565b91505061140a565b508091505090565b61149b610f6a565b6114a457600080fd5b42600960003373ffffffffffffffffffffffffffffffffffffffff1673ffffffffffffffffffffffffffffffffffffffff16815260200190815260200160002081905550565b6000600560008473ffffffffffffffffffffffffffffffffffffffff1673ffffffffffffffffffffffffffffffffffffffff16815260200190815260200160002060008373ffffffffffffffffffffffffffffffffffffffff1673ffffffffffffffffffffffffffffffffffffffff16815260200190815260200160002060009054906101000a900460ff16905092915050565b611586611764565b73ffffffffffffffffffffffffffffffffffffffff166115a4610e98565b73ffffffffffffffffffffffffffffffffffffffff16146115fa576040517f08c379a00000000000000000000000000000000000000000000000000000000081526004016115f1906138e3565b60405180910390fd5b600073ffffffffffffffffffffffffffffffffffffffff168173ffffffffffffffffffffffffffffffffffffffff16141561166a576040517f08c379a000000000000000000000000000000000000000000000000000000000815260040161166190613743565b60405180910390fd5b61167381611e89565b50565b60096020528060005260406000206000915090505481565b60007f01ffc9a7000000000000000000000000000000000000000000000000000000007bffffffffffffffffffffffffffffffffffffffffffffffffffffffff1916827bffffffffffffffffffffffffffffffffffffffffffffffffffffffff1916149050919050565b60008073ffffffffffffffffffffffffffffffffffffffff166002600084815260200190815260200160002060009054906101000a900473ffffffffffffffffffffffffffffffffffffffff1673ffffffffffffffffffffffffffffffffffffffff1614159050919050565b600033905090565b816004600083815260200190815260200160002060006101000a81548173ffffffffffffffffffffffffffffffffffffffff021916908373ffffffffffffffffffffffffffffffffffffffff160217905550808273ffffffffffffffffffffffffffffffffffffffff166117df83610ca6565b73ffffffffffffffffffffffffffffffffffffffff167f8c5be1e5ebec7d5bd14f71427d1e84f3dd0314c0f7b2291e5b200ac8c7c3b92560405160405180910390a45050565b600081600001549050919050565b600061183e826116f8565b61187d576040517f08c379a0000000000000000000000000000000000000000000000000000000008152600401611874906137e3565b60405180910390fd5b600061188883610ca6565b90508073ffffffffffffffffffffffffffffffffffffffff168473ffffffffffffffffffffffffffffffffffffffff1614806118f757508373ffffffffffffffffffffffffffffffffffffffff166118df8461071e565b73ffffffffffffffffffffffffffffffffffffffff16145b80611908575061190781856114ea565b5b91505092915050565b8273ffffffffffffffffffffffffffffffffffffffff1661193182610ca6565b73ffffffffffffffffffffffffffffffffffffffff1614611987576040517f08c379a000000000000000000000000000000000000000000000000000000000815260040161197e90613763565b60405180910390fd5b600073ffffffffffffffffffffffffffffffffffffffff168273ffffffffffffffffffffffffffffffffffffffff1614156119f7576040517f08c379a00000000000000000000000000000000000000000000000000000000081526004016119ee906137a3565b60405180910390fd5b611a02838383612497565b611a0d60008261176c565b6001600360008573ffffffffffffffffffffffffffffffffffffffff1673ffffffffffffffffffffffffffffffffffffffff1681526020019081526020016000206000828254611a5d9190613bf8565b925050819055506001600360008473ffffffffffffffffffffffffffffffffffffffff1673ffffffffffffffffffffffffffffffffffffffff1681526020019081526020016000206000828254611ab49190613b17565b92505081905550816002600083815260200190815260200160002060006101000a81548173ffffffffffffffffffffffffffffffffffffffff021916908373ffffffffffffffffffffffffffffffffffffffff160217905550808273ffffffffffffffffffffffffffffffffffffffff168473ffffffffffffffffffffffffffffffffffffffff167fddf252ad1be2c89b69c2b068fc378daa952ba7f163c4a11628f55a4df523b3ef60405160405180910390a4611b7383838361249c565b505050565b60008042443385604051602001611b9294939291906135ed565b6040516020818303038152906040528051906020012060001c90506000611bb96008611825565b90506000600182611bca9190613b17565b83611bd59190613dbc565b90506000600a84611be69190613dbc565b905060006001905060005b84811015611e1c576000600a60008681526020019081526020016000206040518060a0016040529081600082015481526020016001820160009054906101000a900473ffffffffffffffffffffffffffffffffffffffff1673ffffffffffffffffffffffffffffffffffffffff1673ffffffffffffffffffffffffffffffffffffffff1681526020016002820154815260200160038201548152602001600482018054611c9d90613ce2565b80601f0160208091040260200160405190810160405280929190818152602001828054611cc990613ce2565b8015611d165780601f10611ceb57610100808354040283529160200191611d16565b820191906000526020600020905b815481529060010190602001808311611cf957829003601f168201915b50505050508152505090506000816020015173ffffffffffffffffffffffffffffffffffffffff16905060005b600186611d509190613b17565b811015611daf578186600183611d669190613b17565b611d709190613b9e565b604051602001611d819291906135c1565b6040516020818303038152906040528051906020012060001c91508080611da790613d45565b915050611d43565b508086604051602001611dc39291906135c1565b6040516020818303038152906040528051906020012060001c9350600187611deb9190613b17565b81611df69190613dbc565b9550600a81611e059190613dbc565b945050508080611e1490613d45565b915050611bf1565b506000600282611e2c9190613dbc565b1415611e4057600195505050505050611e4a565b6000955050505050505b919050565b6000611e5a826120bc565b15611e685760009050611e84565b611e71826124a1565b15611e7f5760019050611e84565b600290505b919050565b6000600760009054906101000a900473ffffffffffffffffffffffffffffffffffffffff16905081600760006101000a81548173ffffffffffffffffffffffffffffffffffffffff021916908373ffffffffffffffffffffffffffffffffffffffff1602179055508173ffffffffffffffffffffffffffffffffffffffff168173ffffffffffffffffffffffffffffffffffffffff167f8be0079c531659141344cd1fd0a4f28419497f9722a3daafe3b4186f6b6457e060405160405180910390a35050565b8173ffffffffffffffffffffffffffffffffffffffff168373ffffffffffffffffffffffffffffffffffffffff161415611fbe576040517f08c379a0000000000000000000000000000000000000000000000000000000008152600401611fb5906137c3565b60405180910390fd5b80600560008573ffffffffffffffffffffffffffffffffffffffff1673ffffffffffffffffffffffffffffffffffffffff16815260200190815260200160002060008473ffffffffffffffffffffffffffffffffffffffff1673ffffffffffffffffffffffffffffffffffffffff16815260200190815260200160002060006101000a81548160ff0219169083151502179055508173ffffffffffffffffffffffffffffffffffffffff168373ffffffffffffffffffffffffffffffffffffffff167f17307eab39ab6107e8899845ad3d59bd9653f200f220920489ca2b5937696c31836040516120af91906136e6565b60405180910390a3505050565b6000806120c76108bb565b905060005b815181101561213f578382828151811061210f577f4e487b7100000000000000000000000000000000000000000000000000000000600052603260045260246000fd5b602002602001015160400151141561212c57600192505050612146565b808061213790613d45565b9150506120cc565b5060009150505b919050565b606060008251141561216e576040518060200160405280600081525090506122d0565b600060405180606001604052806040815260200161450a604091399050600060036002855161219d9190613b17565b6121a79190613b6d565b60046121b39190613b9e565b67ffffffffffffffff8111156121f2577f4e487b7100000000000000000000000000000000000000000000000000000000600052604160045260246000fd5b6040519080825280601f01601f1916602001820160405280156122245781602001600182028036833780820191505090505b509050600182016020820185865187015b80821015612290576003820191508151603f8160121c168501518453600184019350603f81600c1c168501518453600184019350603f8160061c168501518453600184019350603f8116850151845360018401935050612235565b50506003865106600181146122ac57600281146122bf576122c7565b603d6001830353603d60028303536122c7565b603d60018303535b50505080925050505b919050565b6122ef8282604051806020016040528060008152506124d0565b5050565b6122fc826116f8565b61233b576040517f08c379a000000000000000000000000000000000000000000000000000000000815260040161233290613863565b60405180910390fd5b80600660008481526020019081526020016000209080519060200190612362929190612ab1565b505050565b6001816000016000828254019250508190555050565b612388848484611911565b6123948484848461252b565b6123d3576040517f08c379a00000000000000000000000000000000000000000000000000000000081526004016123ca90613723565b60405180910390fd5b50505050565b606060405180602001604052806000815250905090565b60606123fb826116f8565b61243a576040517f08c379a000000000000000000000000000000000000000000000000000000000815260040161243190613903565b60405180910390fd5b60006124446123d9565b90506000815111612464576040518060200160405280600081525061248f565b8061246e846126c2565b60405160200161247f929190613536565b6040516020818303038152906040525b915050919050565b505050565b505050565b600080600b600084815260200190815260200160002054146124c657600190506124cb565b600090505b919050565b6124da838361286f565b6124e7600084848461252b565b612526576040517f08c379a000000000000000000000000000000000000000000000000000000000815260040161251d90613723565b60405180910390fd5b505050565b600061254c8473ffffffffffffffffffffffffffffffffffffffff16612a49565b156126b5578373ffffffffffffffffffffffffffffffffffffffff1663150b7a02612575611764565b8786866040518563ffffffff1660e01b81526004016125979493929190613656565b602060405180830381600087803b1580156125b157600080fd5b505af19250505080156125e257506040513d601f19601f820116820180604052508101906125df9190612e5d565b60015b612665573d8060008114612612576040519150601f19603f3d011682016040523d82523d6000602084013e612617565b606091505b5060008151141561265d576040517f08c379a000000000000000000000000000000000000000000000000000000000815260040161265490613723565b60405180910390fd5b805181602001fd5b63150b7a0260e01b7bffffffffffffffffffffffffffffffffffffffffffffffffffffffff1916817bffffffffffffffffffffffffffffffffffffffffffffffffffffffff1916149150506126ba565b600190505b949350505050565b6060600082141561270a576040518060400160405280600181526020017f3000000000000000000000000000000000000000000000000000000000000000815250905061286a565b600082905060005b6000821461273c57808061272590613d45565b915050600a826127359190613b6d565b9150612712565b60008167ffffffffffffffff81111561277e577f4e487b7100000000000000000000000000000000000000000000000000000000600052604160045260246000fd5b6040519080825280601f01601f1916602001820160405280156127b05781602001600182028036833780820191505090505b5090505b60008514612863576001826127c99190613bf8565b9150600a856127d89190613dbc565b60306127e49190613b17565b60f81b818381518110612820577f4e487b7100000000000000000000000000000000000000000000000000000000600052603260045260246000fd5b60200101907effffffffffffffffffffffffffffffffffffffffffffffffffffffffffffff1916908160001a905350600a8561285c9190613b6d565b94506127b4565b8093505050505b919050565b600073ffffffffffffffffffffffffffffffffffffffff168273ffffffffffffffffffffffffffffffffffffffff1614156128df576040517f08c379a00000000000000000000000000000000000000000000000000000000081526004016128d690613883565b60405180910390fd5b6128e8816116f8565b15612928576040517f08c379a000000000000000000000000000000000000000000000000000000000815260040161291f90613783565b60405180910390fd5b61293460008383612497565b6001600360008473ffffffffffffffffffffffffffffffffffffffff1673ffffffffffffffffffffffffffffffffffffffff16815260200190815260200160002060008282546129849190613b17565b92505081905550816002600083815260200190815260200160002060006101000a81548173ffffffffffffffffffffffffffffffffffffffff021916908373ffffffffffffffffffffffffffffffffffffffff160217905550808273ffffffffffffffffffffffffffffffffffffffff16600073ffffffffffffffffffffffffffffffffffffffff167fddf252ad1be2c89b69c2b068fc378daa952ba7f163c4a11628f55a4df523b3ef60405160405180910390a4612a456000838361249c565b5050565b6000808273ffffffffffffffffffffffffffffffffffffffff163b119050919050565b6040518060a0016040528060008152602001600073ffffffffffffffffffffffffffffffffffffffff1681526020016000815260200160008152602001606081525090565b828054612abd90613ce2565b90600052602060002090601f016020900481019282612adf5760008555612b26565b82601f10612af857805160ff1916838001178555612b26565b82800160010185558215612b26579182015b82811115612b25578251825591602001919060010190612b0a565b5b509050612b339190612b37565b5090565b5b80821115612b50576000816000905550600101612b38565b5090565b6000612b67612b62846139ef565b6139ca565b905082815260208101848484011115612b7f57600080fd5b612b8a848285613ca0565b509392505050565b6000612ba5612ba084613a20565b6139ca565b905082815260208101848484011115612bbd57600080fd5b612bc8848285613ca0565b509392505050565b600081359050612bdf816144ad565b92915050565b600081359050612bf4816144c4565b92915050565b600081359050612c09816144db565b92915050565b600081519050612c1e816144db565b92915050565b600082601f830112612c3557600080fd5b8135612c45848260208601612b54565b91505092915050565b600082601f830112612c5f57600080fd5b8135612c6f848260208601612b92565b91505092915050565b600081359050612c87816144f2565b92915050565b600060208284031215612c9f57600080fd5b6000612cad84828501612bd0565b91505092915050565b60008060408385031215612cc957600080fd5b6000612cd785828601612bd0565b9250506020612ce885828601612bd0565b9150509250929050565b600080600060608486031215612d0757600080fd5b6000612d1586828701612bd0565b9350506020612d2686828701612bd0565b9250506040612d3786828701612c78565b9150509250925092565b60008060008060808587031215612d5757600080fd5b6000612d6587828801612bd0565b9450506020612d7687828801612bd0565b9350506040612d8787828801612c78565b925050606085013567ffffffffffffffff811115612da457600080fd5b612db087828801612c24565b91505092959194509250565b60008060408385031215612dcf57600080fd5b6000612ddd85828601612bd0565b9250506020612dee85828601612be5565b9150509250929050565b60008060408385031215612e0b57600080fd5b6000612e1985828601612bd0565b9250506020612e2a85828601612c78565b9150509250929050565b600060208284031215612e4657600080fd5b6000612e5484828501612bfa565b91505092915050565b600060208284031215612e6f57600080fd5b6000612e7d84828501612c0f565b91505092915050565b600060208284031215612e9857600080fd5b6000612ea684828501612c78565b91505092915050565b600080600060608486031215612ec457600080fd5b6000612ed286828701612c78565b935050602084013567ffffffffffffffff811115612eef57600080fd5b612efb86828701612c4e565b925050604084013567ffffffffffffffff811115612f1857600080fd5b612f2486828701612c4e565b9150509250925092565b60008060408385031215612f4157600080fd5b6000612f4f85828601612c78565b9250506020612f6085828601612c78565b9150509250929050565b6000612f76838361348b565b905092915050565b6000612f8a8383613501565b60208301905092915050565b612f9f81613c2c565b82525050565b612fae81613c2c565b82525050565b612fc5612fc082613c2c565b613d8e565b82525050565b6000612fd682613a71565b612fe08185613ab7565b935083602082028501612ff285613a51565b8060005b8581101561302e578484038952815161300f8582612f6a565b945061301a83613a9d565b925060208a01995050600181019050612ff6565b50829750879550505050505092915050565b600061304b82613a7c565b6130558185613ac8565b935061306083613a61565b8060005b838110156130915781516130788882612f7e565b975061308383613aaa565b925050600181019050613064565b5085935050505092915050565b6130a781613c3e565b82525050565b60006130b882613a87565b6130c28185613ad9565b93506130d2818560208601613caf565b6130db81613ea9565b840191505092915050565b60006130f182613a92565b6130fb8185613aea565b935061310b818560208601613caf565b61311481613ea9565b840191505092915050565b600061312a82613a92565b6131348185613afb565b9350613144818560208601613caf565b61314d81613ea9565b840191505092915050565b600061316382613a92565b61316d8185613b0c565b935061317d818560208601613caf565b80840191505092915050565b6000613196603283613afb565b91506131a182613ec7565b604082019050919050565b60006131b9602683613afb565b91506131c482613f16565b604082019050919050565b60006131dc602583613afb565b91506131e782613f65565b604082019050919050565b60006131ff601c83613afb565b915061320a82613fb4565b602082019050919050565b6000613222602483613afb565b915061322d82613fdd565b604082019050919050565b6000613245601983613afb565b91506132508261402c565b602082019050919050565b6000613268602583613b0c565b915061327382614055565b602582019050919050565b600061328b602c83613afb565b9150613296826140a4565b604082019050919050565b60006132ae603883613afb565b91506132b9826140f3565b604082019050919050565b60006132d1602a83613afb565b91506132dc82614142565b604082019050919050565b60006132f4602983613afb565b91506132ff82614191565b604082019050919050565b6000613317602e83613afb565b9150613322826141e0565b604082019050919050565b600061333a600283613b0c565b91506133458261422f565b600282019050919050565b600061335d602083613afb565b915061336882614258565b602082019050919050565b6000613380603183613afb565b915061338b82614281565b604082019050919050565b60006133a3602c83613afb565b91506133ae826142d0565b604082019050919050565b60006133c6602083613afb565b91506133d18261431f565b602082019050919050565b60006133e9602f83613afb565b91506133f482614348565b604082019050919050565b600061340c602883613b0c565b915061341782614397565b602882019050919050565b600061342f602183613afb565b915061343a826143e6565b604082019050919050565b6000613452601d83613b0c565b915061345d82614435565b601d82019050919050565b6000613475603183613afb565b91506134808261445e565b604082019050919050565b600060a0830160008301516134a36000860182613501565b5060208301516134b66020860182612f96565b5060408301516134c96040860182613501565b5060608301516134dc6060860182613501565b50608083015184820360808601526134f482826130e6565b9150508091505092915050565b61350a81613c96565b82525050565b61351981613c96565b82525050565b61353061352b82613c96565b613db2565b82525050565b60006135428285613158565b915061354e8284613158565b91508190509392505050565b60006135658261325b565b91506135718285613158565b915061357c826133ff565b91506135888284613158565b91506135938261332d565b91508190509392505050565b60006135aa82613445565b91506135b68284613158565b915081905092915050565b60006135cd828561351f565b6020820191506135dd828461351f565b6020820191508190509392505050565b60006135f9828761351f565b602082019150613609828661351f565b6020820191506136198285612fb4565b601482019150613629828461351f565b60208201915081905095945050505050565b60006020820190506136506000830184612fa5565b92915050565b600060808201905061366b6000830187612fa5565b6136786020830186612fa5565b6136856040830185613510565b818103606083015261369781846130ad565b905095945050505050565b600060208201905081810360008301526136bc8184612fcb565b905092915050565b600060208201905081810360008301526136de8184613040565b905092915050565b60006020820190506136fb600083018461309e565b92915050565b6000602082019050818103600083015261371b818461311f565b905092915050565b6000602082019050818103600083015261373c81613189565b9050919050565b6000602082019050818103600083015261375c816131ac565b9050919050565b6000602082019050818103600083015261377c816131cf565b9050919050565b6000602082019050818103600083015261379c816131f2565b9050919050565b600060208201905081810360008301526137bc81613215565b9050919050565b600060208201905081810360008301526137dc81613238565b9050919050565b600060208201905081810360008301526137fc8161327e565b9050919050565b6000602082019050818103600083015261381c816132a1565b9050919050565b6000602082019050818103600083015261383c816132c4565b9050919050565b6000602082019050818103600083015261385c816132e7565b9050919050565b6000602082019050818103600083015261387c8161330a565b9050919050565b6000602082019050818103600083015261389c81613350565b9050919050565b600060208201905081810360008301526138bc81613373565b9050919050565b600060208201905081810360008301526138dc81613396565b9050919050565b600060208201905081810360008301526138fc816133b9565b9050919050565b6000602082019050818103600083015261391c816133dc565b9050919050565b6000602082019050818103600083015261393c81613422565b9050919050565b6000602082019050818103600083015261395c81613468565b9050919050565b60006020820190506139786000830184613510565b92915050565b60006080820190506139936000830187613510565b6139a06020830186613510565b6139ad6040830185613510565b81810360608301526139bf818461311f565b905095945050505050565b60006139d46139e5565b90506139e08282613d14565b919050565b6000604051905090565b600067ffffffffffffffff821115613a0a57613a09613e7a565b5b613a1382613ea9565b9050602081019050919050565b600067ffffffffffffffff821115613a3b57613a3a613e7a565b5b613a4482613ea9565b9050602081019050919050565b6000819050602082019050919050565b6000819050602082019050919050565b600081519050919050565b600081519050919050565b600081519050919050565b600081519050919050565b6000602082019050919050565b6000602082019050919050565b600082825260208201905092915050565b600082825260208201905092915050565b600082825260208201905092915050565b600082825260208201905092915050565b600082825260208201905092915050565b600081905092915050565b6000613b2282613c96565b9150613b2d83613c96565b9250827fffffffffffffffffffffffffffffffffffffffffffffffffffffffffffffffff03821115613b6257613b61613ded565b5b828201905092915050565b6000613b7882613c96565b9150613b8383613c96565b925082613b9357613b92613e1c565b5b828204905092915050565b6000613ba982613c96565b9150613bb483613c96565b9250817fffffffffffffffffffffffffffffffffffffffffffffffffffffffffffffffff0483118215151615613bed57613bec613ded565b5b828202905092915050565b6000613c0382613c96565b9150613c0e83613c96565b925082821015613c2157613c20613ded565b5b828203905092915050565b6000613c3782613c76565b9050919050565b60008115159050919050565b60007fffffffff0000000000000000000000000000000000000000000000000000000082169050919050565b600073ffffffffffffffffffffffffffffffffffffffff82169050919050565b6000819050919050565b82818337600083830152505050565b60005b83811015613ccd578082015181840152602081019050613cb2565b83811115613cdc576000848401525b50505050565b60006002820490506001821680613cfa57607f821691505b60208210811415613d0e57613d0d613e4b565b5b50919050565b613d1d82613ea9565b810181811067ffffffffffffffff82111715613d3c57613d3b613e7a565b5b80604052505050565b6000613d5082613c96565b91507fffffffffffffffffffffffffffffffffffffffffffffffffffffffffffffffff821415613d8357613d82613ded565b5b600182019050919050565b6000613d9982613da0565b9050919050565b6000613dab82613eba565b9050919050565b6000819050919050565b6000613dc782613c96565b9150613dd283613c96565b925082613de257613de1613e1c565b5b828206905092915050565b7f4e487b7100000000000000000000000000000000000000000000000000000000600052601160045260246000fd5b7f4e487b7100000000000000000000000000000000000000000000000000000000600052601260045260246000fd5b7f4e487b7100000000000000000000000000000000000000000000000000000000600052602260045260246000fd5b7f4e487b7100000000000000000000000000000000000000000000000000000000600052604160045260246000fd5b6000601f19601f8301169050919050565b60008160601b9050919050565b7f4552433732313a207472616e7366657220746f206e6f6e20455243373231526560008201527f63656976657220696d706c656d656e7465720000000000000000000000000000602082015250565b7f4f776e61626c653a206e6577206f776e657220697320746865207a65726f206160008201527f6464726573730000000000000000000000000000000000000000000000000000602082015250565b7f4552433732313a207472616e736665722066726f6d20696e636f72726563742060008201527f6f776e6572000000000000000000000000000000000000000000000000000000602082015250565b7f4552433732313a20746f6b656e20616c7265616479206d696e74656400000000600082015250565b7f4552433732313a207472616e7366657220746f20746865207a65726f2061646460008201527f7265737300000000000000000000000000000000000000000000000000000000602082015250565b7f4552433732313a20617070726f766520746f2063616c6c657200000000000000600082015250565b7f7b226e616d65223a20224d79204669737274204e4654222c20226d657373616760008201527f65223a2022000000000000000000000000000000000000000000000000000000602082015250565b7f4552433732313a206f70657261746f7220717565727920666f72206e6f6e657860008201527f697374656e7420746f6b656e0000000000000000000000000000000000000000602082015250565b7f4552433732313a20617070726f76652063616c6c6572206973206e6f74206f7760008201527f6e6572206e6f7220617070726f76656420666f7220616c6c0000000000000000602082015250565b7f4552433732313a2062616c616e636520717565727920666f7220746865207a6560008201527f726f206164647265737300000000000000000000000000000000000000000000602082015250565b7f4552433732313a206f776e657220717565727920666f72206e6f6e657869737460008201527f656e7420746f6b656e0000000000000000000000000000000000000000000000602082015250565b7f45524337323155524953746f726167653a2055524920736574206f66206e6f6e60008201527f6578697374656e7420746f6b656e000000000000000000000000000000000000602082015250565b7f227d000000000000000000000000000000000000000000000000000000000000600082015250565b7f4552433732313a206d696e7420746f20746865207a65726f2061646472657373600082015250565b7f45524337323155524953746f726167653a2055524920717565727920666f722060008201527f6e6f6e6578697374656e7420746f6b656e000000000000000000000000000000602082015250565b7f4552433732313a20617070726f76656420717565727920666f72206e6f6e657860008201527f697374656e7420746f6b656e0000000000000000000000000000000000000000602082015250565b7f4f776e61626c653a2063616c6c6572206973206e6f7420746865206f776e6572600082015250565b7f4552433732314d657461646174613a2055524920717565727920666f72206e6f60008201527f6e6578697374656e7420746f6b656e0000000000000000000000000000000000602082015250565b7f222c2022696d616765223a2022646174613a696d6167652f5f7376672b786d6c60008201527f3b6261736536342c000000000000000000000000000000000000000000000000602082015250565b7f4552433732313a20617070726f76616c20746f2063757272656e74206f776e6560008201527f7200000000000000000000000000000000000000000000000000000000000000602082015250565b7f646174613a6170706c69636174696f6e2f6a736f6e3b6261736536342c000000600082015250565b7f4552433732313a207472616e736665722063616c6c6572206973206e6f74206f60008201527f776e6572206e6f7220617070726f766564000000000000000000000000000000602082015250565b6144b681613c2c565b81146144c157600080fd5b50565b6144cd81613c3e565b81146144d857600080fd5b50565b6144e481613c4a565b81146144ef57600080fd5b50565b6144fb81613c96565b811461450657600080fd5b5056fe4142434445464748494a4b4c4d4e4f505152535455565758595a6162636465666768696a6b6c6d6e6f707172737475767778797a303132333435363738392b2fa2646970667358221220826f02286f109a96de13d8912c944caa0547ad18e73134765c946aeb1362c4d364736f6c63430008040033",
  "linkReferences": {},
  "deployedLinkReferences": {}
}